{
  "abi": [
    {
      "inputs": [
        {
          "internalType": "address",
          "name": "_nft",
          "type": "address"
        }
      ],
      "stateMutability": "nonpayable",
      "type": "constructor"
    },
    {
      "anonymous": false,
      "inputs": [
        {
          "indexed": true,
          "internalType": "address",
          "name": "owner",
          "type": "address"
        },
        {
          "indexed": true,
          "internalType": "address",
          "name": "spender",
          "type": "address"
        },
        {
          "indexed": false,
          "internalType": "uint256",
          "name": "value",
          "type": "uint256"
        }
      ],
      "name": "Approval",
      "type": "event"
    },
    {
      "anonymous": false,
      "inputs": [
        {
          "indexed": true,
          "internalType": "address",
          "name": "previousOwner",
          "type": "address"
        },
        {
          "indexed": true,
          "internalType": "address",
          "name": "newOwner",
          "type": "address"
        }
      ],
      "name": "OwnershipTransferred",
      "type": "event"
    },
    {
      "anonymous": false,
      "inputs": [
        {
          "indexed": true,
          "internalType": "address",
          "name": "from",
          "type": "address"
        },
        {
          "indexed": true,
          "internalType": "address",
          "name": "to",
          "type": "address"
        },
        {
          "indexed": false,
          "internalType": "uint256",
          "name": "value",
          "type": "uint256"
        }
      ],
      "name": "Transfer",
      "type": "event"
    },
    {
      "inputs": [],
      "name": "EMISSION_RATE",
      "outputs": [
        {
          "internalType": "uint256",
          "name": "",
          "type": "uint256"
        }
      ],
      "stateMutability": "view",
      "type": "function"
    },
    {
      "inputs": [
        {
          "internalType": "address",
          "name": "owner",
          "type": "address"
        },
        {
          "internalType": "address",
          "name": "spender",
          "type": "address"
        }
      ],
      "name": "allowance",
      "outputs": [
        {
          "internalType": "uint256",
          "name": "",
          "type": "uint256"
        }
      ],
      "stateMutability": "view",
      "type": "function"
    },
    {
      "inputs": [
        {
          "internalType": "address",
          "name": "spender",
          "type": "address"
        },
        {
          "internalType": "uint256",
          "name": "amount",
          "type": "uint256"
        }
      ],
      "name": "approve",
      "outputs": [
        {
          "internalType": "bool",
          "name": "",
          "type": "bool"
        }
      ],
      "stateMutability": "nonpayable",
      "type": "function"
    },
    {
      "inputs": [
        {
          "internalType": "address",
          "name": "account",
          "type": "address"
        }
      ],
      "name": "balanceOf",
      "outputs": [
        {
          "internalType": "uint256",
          "name": "",
          "type": "uint256"
        }
      ],
      "stateMutability": "view",
      "type": "function"
    },
    {
      "inputs": [
        {
          "internalType": "uint256",
          "name": "tokenId",
          "type": "uint256"
        }
      ],
      "name": "calculateTokens",
      "outputs": [
        {
          "internalType": "uint256",
          "name": "",
          "type": "uint256"
        }
      ],
      "stateMutability": "view",
      "type": "function"
    },
    {
      "inputs": [
        {
          "internalType": "uint256",
          "name": "tokenId",
          "type": "uint256"
        }
      ],
      "name": "checkIfStaked",
      "outputs": [
        {
          "internalType": "bool",
          "name": "",
          "type": "bool"
        }
      ],
      "stateMutability": "view",
      "type": "function"
    },
    {
      "inputs": [],
      "name": "decimals",
      "outputs": [
        {
          "internalType": "uint8",
          "name": "",
          "type": "uint8"
        }
      ],
      "stateMutability": "view",
      "type": "function"
    },
    {
      "inputs": [
        {
          "internalType": "address",
          "name": "spender",
          "type": "address"
        },
        {
          "internalType": "uint256",
          "name": "subtractedValue",
          "type": "uint256"
        }
      ],
      "name": "decreaseAllowance",
      "outputs": [
        {
          "internalType": "bool",
          "name": "",
          "type": "bool"
        }
      ],
      "stateMutability": "nonpayable",
      "type": "function"
    },
    {
      "inputs": [
        {
          "internalType": "address",
          "name": "spender",
          "type": "address"
        },
        {
          "internalType": "uint256",
          "name": "addedValue",
          "type": "uint256"
        }
      ],
      "name": "increaseAllowance",
      "outputs": [
        {
          "internalType": "bool",
          "name": "",
          "type": "bool"
        }
      ],
      "stateMutability": "nonpayable",
      "type": "function"
    },
    {
      "inputs": [
        {
          "internalType": "uint256",
          "name": "",
          "type": "uint256"
        }
      ],
      "name": "isStaked",
      "outputs": [
        {
          "internalType": "bool",
          "name": "",
          "type": "bool"
        }
      ],
      "stateMutability": "view",
      "type": "function"
    },
    {
      "inputs": [],
      "name": "name",
      "outputs": [
        {
          "internalType": "string",
          "name": "",
          "type": "string"
        }
      ],
      "stateMutability": "view",
      "type": "function"
    },
    {
      "inputs": [],
      "name": "nft",
      "outputs": [
        {
          "internalType": "contract IERC721",
          "name": "",
          "type": "address"
        }
      ],
      "stateMutability": "view",
      "type": "function"
    },
    {
      "inputs": [
        {
          "internalType": "address",
          "name": "",
          "type": "address"
        },
        {
          "internalType": "address",
          "name": "",
          "type": "address"
        },
        {
          "internalType": "uint256",
          "name": "",
          "type": "uint256"
        },
        {
          "internalType": "bytes",
          "name": "",
          "type": "bytes"
        }
      ],
      "name": "onERC721Received",
      "outputs": [
        {
          "internalType": "bytes4",
          "name": "",
          "type": "bytes4"
        }
      ],
      "stateMutability": "nonpayable",
      "type": "function"
    },
    {
      "inputs": [],
      "name": "owner",
      "outputs": [
        {
          "internalType": "address",
          "name": "",
          "type": "address"
        }
      ],
      "stateMutability": "view",
      "type": "function"
    },
    {
      "inputs": [],
      "name": "renounceOwnership",
      "outputs": [],
      "stateMutability": "nonpayable",
      "type": "function"
    },
    {
      "inputs": [
        {
          "internalType": "uint256",
          "name": "tokenId",
          "type": "uint256"
        }
      ],
      "name": "stake",
      "outputs": [],
      "stateMutability": "nonpayable",
      "type": "function"
    },
    {
      "inputs": [],
      "name": "symbol",
      "outputs": [
        {
          "internalType": "string",
          "name": "",
          "type": "string"
        }
      ],
      "stateMutability": "view",
      "type": "function"
    },
    {
      "inputs": [
        {
          "internalType": "uint256",
          "name": "",
          "type": "uint256"
        }
      ],
      "name": "tokenOwnerOf",
      "outputs": [
        {
          "internalType": "address",
          "name": "",
          "type": "address"
        }
      ],
      "stateMutability": "view",
      "type": "function"
    },
    {
      "inputs": [
        {
          "internalType": "uint256",
          "name": "",
          "type": "uint256"
        }
      ],
      "name": "tokenStakedAt",
      "outputs": [
        {
          "internalType": "uint256",
          "name": "",
          "type": "uint256"
        }
      ],
      "stateMutability": "view",
      "type": "function"
    },
    {
      "inputs": [],
      "name": "totalSupply",
      "outputs": [
        {
          "internalType": "uint256",
          "name": "",
          "type": "uint256"
        }
      ],
      "stateMutability": "view",
      "type": "function"
    },
    {
      "inputs": [
        {
          "internalType": "address",
          "name": "to",
          "type": "address"
        },
        {
          "internalType": "uint256",
          "name": "amount",
          "type": "uint256"
        }
      ],
      "name": "transfer",
      "outputs": [
        {
          "internalType": "bool",
          "name": "",
          "type": "bool"
        }
      ],
      "stateMutability": "nonpayable",
      "type": "function"
    },
    {
      "inputs": [
        {
          "internalType": "address",
          "name": "from",
          "type": "address"
        },
        {
          "internalType": "address",
          "name": "to",
          "type": "address"
        },
        {
          "internalType": "uint256",
          "name": "amount",
          "type": "uint256"
        }
      ],
      "name": "transferFrom",
      "outputs": [
        {
          "internalType": "bool",
          "name": "",
          "type": "bool"
        }
      ],
      "stateMutability": "nonpayable",
      "type": "function"
    },
    {
      "inputs": [
        {
          "internalType": "address",
          "name": "newOwner",
          "type": "address"
        }
      ],
      "name": "transferOwnership",
      "outputs": [],
      "stateMutability": "nonpayable",
      "type": "function"
    },
    {
      "inputs": [
        {
          "internalType": "uint256",
          "name": "tokenId",
          "type": "uint256"
        }
      ],
      "name": "unstake",
      "outputs": [],
      "stateMutability": "nonpayable",
      "type": "function"
    }
  ],
  "bytecode": {
    "object": "0x608060405262015180620000166012600a6200026c565b6200002390603262000284565b6200002f91906200029e565b6009553480156200003f57600080fd5b50604051620013e8380380620013e88339810160408190526200006291620002c1565b6040518060400160405280600781526020016626bcaa37b5b2b760c91b815250604051806040016040528060038152602001624d544b60e81b8152508160039081620000af919062000391565b506004620000be828262000391565b505050620000db620000d56200010160201b60201c565b62000105565b600680546001600160a01b0319166001600160a01b03929092169190911790556200045d565b3390565b600580546001600160a01b038381166001600160a01b0319831681179093556040519116919082907f8be0079c531659141344cd1fd0a4f28419497f9722a3daafe3b4186f6b6457e090600090a35050565b634e487b7160e01b600052601160045260246000fd5b600181815b80851115620001ae57816000190482111562000192576200019262000157565b80851615620001a057918102915b93841c939080029062000172565b509250929050565b600082620001c75750600162000266565b81620001d65750600062000266565b8160018114620001ef5760028114620001fa576200021a565b600191505062000266565b60ff8411156200020e576200020e62000157565b50506001821b62000266565b5060208310610133831016604e8410600b84101617156200023f575081810a62000266565b6200024b83836200016d565b806000190482111562000262576200026262000157565b0290505b92915050565b60006200027d60ff841683620001b6565b9392505050565b808202811582820484141762000266576200026662000157565b600082620002bc57634e487b7160e01b600052601260045260246000fd5b500490565b600060208284031215620002d457600080fd5b81516001600160a01b03811681146200027d57600080fd5b634e487b7160e01b600052604160045260246000fd5b600181811c908216806200031757607f821691505b6020821081036200033857634e487b7160e01b600052602260045260246000fd5b50919050565b601f8211156200038c57600081815260208120601f850160051c81016020861015620003675750805b601f850160051c820191505b81811015620003885782815560010162000373565b5050505b505050565b81516001600160401b03811115620003ad57620003ad620002ec565b620003c581620003be845462000302565b846200033e565b602080601f831160018114620003fd5760008415620003e45750858301515b600019600386901b1c1916600185901b17855562000388565b600085815260208120601f198616915b828110156200042e578886015182559484019460019091019084016200040d565b50858210156200044d5787850151600019600388901b60f8161c191681555b5050505050600190811b01905550565b610f7b806200046d6000396000f3fe608060405234801561001057600080fd5b50600436106101585760003560e01c806370a08231116100c3578063a457c2d71161007c578063a457c2d71461032e578063a694fc3a14610341578063a9059cbb14610354578063baa51f8614610367578063dd62ed3e1461038a578063f2fde38b1461039d57600080fd5b806370a08231146102a8578063715018a6146102d157806371aa60fd146102d957806389885a59146102ec5780638da5cb5b1461031557806395d89b411461032657600080fd5b806324bf238c1161011557806324bf238c146102035780632e17de7814610223578063313ce56714610238578063395093511461024757806347ccca021461025a5780635dbc7f891461028557600080fd5b806301b8199a1461015d57806306fdde0314610179578063095ea7b31461018e578063150b7a02146101b157806318160ddd146101e857806323b872dd146101f0575b600080fd5b61016660095481565b6040519081526020015b60405180910390f35b6101816103b0565b6040516101709190610c8f565b6101a161019c366004610cf9565b610442565b6040519015158152602001610170565b6101cf6101bf366004610d39565b630a85bd0160e11b949350505050565b6040516001600160e01b03199091168152602001610170565b600254610166565b6101a16101fe366004610e15565b61045c565b610166610211366004610e51565b60086020526000908152604090205481565b610236610231366004610e51565b610480565b005b60405160128152602001610170565b6101a1610255366004610cf9565b610595565b60065461026d906001600160a01b031681565b6040516001600160a01b039091168152602001610170565b6101a1610293366004610e51565b6000908152600a602052604090205460ff1690565b6101666102b6366004610e6a565b6001600160a01b031660009081526020819052604090205490565b6102366105b7565b6101666102e7366004610e51565b6105cb565b61026d6102fa366004610e51565b6007602052600090815260409020546001600160a01b031681565b6005546001600160a01b031661026d565b6101816105fd565b6101a161033c366004610cf9565b61060c565b61023661034f366004610e51565b610687565b6101a1610362366004610cf9565b610730565b6101a1610375366004610e51565b600a6020526000908152604090205460ff1681565b610166610398366004610e85565b61073e565b6102366103ab366004610e6a565b610769565b6060600380546103bf90610eb8565b80601f01602080910402602001604051908101604052809291908181526020018280546103eb90610eb8565b80156104385780601f1061040d57610100808354040283529160200191610438565b820191906000526020600020905b81548152906001019060200180831161041b57829003601f168201915b5050505050905090565b6000336104508185856107e2565b60019150505b92915050565b60003361046a858285610906565b610475858585610980565b506001949350505050565b6000818152600760205260409020546001600160a01b031633146104df5760405162461bcd60e51b8152602060048201526011602482015270596f752063616e277420756e7374616b6560781b60448201526064015b60405180910390fd5b6104f1336104ec836105cb565b610b24565b6006546040516323b872dd60e01b8152306004820152336024820152604481018390526001600160a01b03909116906323b872dd90606401600060405180830381600087803b15801561054357600080fd5b505af1158015610557573d6000803e3d6000fd5b50505060009182525060076020908152604080832080546001600160a01b031916905560088252808320839055600a9091529020805460ff19169055565b6000336104508185856105a8838361073e565b6105b29190610f08565b6107e2565b6105bf610be3565b6105c96000610c3d565b565b60008181526008602052604081205481906105e69042610f1b565b9050600954816105f69190610f2e565b9392505050565b6060600480546103bf90610eb8565b6000338161061a828661073e565b90508381101561067a5760405162461bcd60e51b815260206004820152602560248201527f45524332303a2064656372656173656420616c6c6f77616e63652062656c6f77604482015264207a65726f60d81b60648201526084016104d6565b61047582868684036107e2565b600654604051632142170760e11b8152336004820152306024820152604481018390526001600160a01b03909116906342842e0e90606401600060405180830381600087803b1580156106d957600080fd5b505af11580156106ed573d6000803e3d6000fd5b50505060009182525060076020908152604080832080546001600160a01b0319163317905560088252808320429055600a9091529020805460ff19166001179055565b600033610450818585610980565b6001600160a01b03918216600090815260016020908152604080832093909416825291909152205490565b610771610be3565b6001600160a01b0381166107d65760405162461bcd60e51b815260206004820152602660248201527f4f776e61626c653a206e6577206f776e657220697320746865207a65726f206160448201526564647265737360d01b60648201526084016104d6565b6107df81610c3d565b50565b6001600160a01b0383166108445760405162461bcd60e51b8152602060048201526024808201527f45524332303a20617070726f76652066726f6d20746865207a65726f206164646044820152637265737360e01b60648201526084016104d6565b6001600160a01b0382166108a55760405162461bcd60e51b815260206004820152602260248201527f45524332303a20617070726f766520746f20746865207a65726f206164647265604482015261737360f01b60648201526084016104d6565b6001600160a01b0383811660008181526001602090815260408083209487168084529482529182902085905590518481527f8c5be1e5ebec7d5bd14f71427d1e84f3dd0314c0f7b2291e5b200ac8c7c3b925910160405180910390a3505050565b6000610912848461073e565b9050600019811461097a578181101561096d5760405162461bcd60e51b815260206004820152601d60248201527f45524332303a20696e73756666696369656e7420616c6c6f77616e636500000060448201526064016104d6565b61097a84848484036107e2565b50505050565b6001600160a01b0383166109e45760405162461bcd60e51b815260206004820152602560248201527f45524332303a207472616e736665722066726f6d20746865207a65726f206164604482015264647265737360d81b60648201526084016104d6565b6001600160a01b038216610a465760405162461bcd60e51b815260206004820152602360248201527f45524332303a207472616e7366657220746f20746865207a65726f206164647260448201526265737360e81b60648201526084016104d6565b6001600160a01b03831660009081526020819052604090205481811015610abe5760405162461bcd60e51b815260206004820152602660248201527f45524332303a207472616e7366657220616d6f756e7420657863656564732062604482015265616c616e636560d01b60648201526084016104d6565b6001600160a01b03848116600081815260208181526040808320878703905593871680835291849020805487019055925185815290927fddf252ad1be2c89b69c2b068fc378daa952ba7f163c4a11628f55a4df523b3ef910160405180910390a361097a565b6001600160a01b038216610b7a5760405162461bcd60e51b815260206004820152601f60248201527f45524332303a206d696e7420746f20746865207a65726f20616464726573730060448201526064016104d6565b8060026000828254610b8c9190610f08565b90915550506001600160a01b038216600081815260208181526040808320805486019055518481527fddf252ad1be2c89b69c2b068fc378daa952ba7f163c4a11628f55a4df523b3ef910160405180910390a35050565b6005546001600160a01b031633146105c95760405162461bcd60e51b815260206004820181905260248201527f4f776e61626c653a2063616c6c6572206973206e6f7420746865206f776e657260448201526064016104d6565b600580546001600160a01b038381166001600160a01b0319831681179093556040519116919082907f8be0079c531659141344cd1fd0a4f28419497f9722a3daafe3b4186f6b6457e090600090a35050565b600060208083528351808285015260005b81811015610cbc57858101830151858201604001528201610ca0565b506000604082860101526040601f19601f8301168501019250505092915050565b80356001600160a01b0381168114610cf457600080fd5b919050565b60008060408385031215610d0c57600080fd5b610d1583610cdd565b946020939093013593505050565b634e487b7160e01b600052604160045260246000fd5b60008060008060808587031215610d4f57600080fd5b610d5885610cdd565b9350610d6660208601610cdd565b925060408501359150606085013567ffffffffffffffff80821115610d8a57600080fd5b818701915087601f830112610d9e57600080fd5b813581811115610db057610db0610d23565b604051601f8201601f19908116603f01168101908382118183101715610dd857610dd8610d23565b816040528281528a6020848701011115610df157600080fd5b82602086016020830137600060208483010152809550505050505092959194509250565b600080600060608486031215610e2a57600080fd5b610e3384610cdd565b9250610e4160208501610cdd565b9150604084013590509250925092565b600060208284031215610e6357600080fd5b5035919050565b600060208284031215610e7c57600080fd5b6105f682610cdd565b60008060408385031215610e9857600080fd5b610ea183610cdd565b9150610eaf60208401610cdd565b90509250929050565b600181811c90821680610ecc57607f821691505b602082108103610eec57634e487b7160e01b600052602260045260246000fd5b50919050565b634e487b7160e01b600052601160045260246000fd5b8082018082111561045657610456610ef2565b8181038181111561045657610456610ef2565b808202811582820484141761045657610456610ef256fea264697066735822122066bb23f172be717f8fc8b23c75a561279aef50a011e14cf1af22c0279cdc3df364736f6c63430008120033",
    "linkReferences": {}
  },
  "methodIdentifiers": {
    "EMISSION_RATE()": "01b8199a",
    "allowance(address,address)": "dd62ed3e",
    "approve(address,uint256)": "095ea7b3",
    "balanceOf(address)": "70a08231",
    "calculateTokens(uint256)": "71aa60fd",
    "checkIfStaked(uint256)": "5dbc7f89",
    "decimals()": "313ce567",
    "decreaseAllowance(address,uint256)": "a457c2d7",
    "increaseAllowance(address,uint256)": "39509351",
    "isStaked(uint256)": "baa51f86",
    "name()": "06fdde03",
    "nft()": "47ccca02",
    "onERC721Received(address,address,uint256,bytes)": "150b7a02",
    "owner()": "8da5cb5b",
    "renounceOwnership()": "715018a6",
    "stake(uint256)": "a694fc3a",
    "symbol()": "95d89b41",
    "tokenOwnerOf(uint256)": "89885a59",
    "tokenStakedAt(uint256)": "24bf238c",
    "totalSupply()": "18160ddd",
    "transfer(address,uint256)": "a9059cbb",
    "transferFrom(address,address,uint256)": "23b872dd",
    "transferOwnership(address)": "f2fde38b",
    "unstake(uint256)": "2e17de78"
  },
  "id": 37
}