{
  "abi": [
    {
      "inputs": [
        {
          "internalType": "address",
          "name": "_nft",
          "type": "address"
        }
      ],
      "stateMutability": "nonpayable",
      "type": "constructor"
    },
    {
      "anonymous": false,
      "inputs": [
        {
          "indexed": true,
          "internalType": "address",
          "name": "owner",
          "type": "address"
        },
        {
          "indexed": true,
          "internalType": "address",
          "name": "spender",
          "type": "address"
        },
        {
          "indexed": false,
          "internalType": "uint256",
          "name": "value",
          "type": "uint256"
        }
      ],
      "name": "Approval",
      "type": "event"
    },
    {
      "anonymous": false,
      "inputs": [
        {
          "indexed": true,
          "internalType": "address",
          "name": "previousOwner",
          "type": "address"
        },
        {
          "indexed": true,
          "internalType": "address",
          "name": "newOwner",
          "type": "address"
        }
      ],
      "name": "OwnershipTransferred",
      "type": "event"
    },
    {
      "anonymous": false,
      "inputs": [
        {
          "indexed": true,
          "internalType": "address",
          "name": "from",
          "type": "address"
        },
        {
          "indexed": true,
          "internalType": "address",
          "name": "to",
          "type": "address"
        },
        {
          "indexed": false,
          "internalType": "uint256",
          "name": "value",
          "type": "uint256"
        }
      ],
      "name": "Transfer",
      "type": "event"
    },
    {
      "inputs": [],
      "name": "EMISSION_RATE",
      "outputs": [
        {
          "internalType": "uint256",
          "name": "",
          "type": "uint256"
        }
      ],
      "stateMutability": "view",
      "type": "function"
    },
    {
      "inputs": [
        {
          "internalType": "address",
          "name": "owner",
          "type": "address"
        },
        {
          "internalType": "address",
          "name": "spender",
          "type": "address"
        }
      ],
      "name": "allowance",
      "outputs": [
        {
          "internalType": "uint256",
          "name": "",
          "type": "uint256"
        }
      ],
      "stateMutability": "view",
      "type": "function"
    },
    {
      "inputs": [
        {
          "internalType": "address",
          "name": "spender",
          "type": "address"
        },
        {
          "internalType": "uint256",
          "name": "amount",
          "type": "uint256"
        }
      ],
      "name": "approve",
      "outputs": [
        {
          "internalType": "bool",
          "name": "",
          "type": "bool"
        }
      ],
      "stateMutability": "nonpayable",
      "type": "function"
    },
    {
      "inputs": [
        {
          "internalType": "address",
          "name": "account",
          "type": "address"
        }
      ],
      "name": "balanceOf",
      "outputs": [
        {
          "internalType": "uint256",
          "name": "",
          "type": "uint256"
        }
      ],
      "stateMutability": "view",
      "type": "function"
    },
    {
      "inputs": [
        {
          "internalType": "uint256",
          "name": "tokenId",
          "type": "uint256"
        }
      ],
      "name": "calculateTokens",
      "outputs": [
        {
          "internalType": "uint256",
          "name": "",
          "type": "uint256"
        }
      ],
      "stateMutability": "view",
      "type": "function"
    },
    {
      "inputs": [
        {
          "internalType": "uint256",
          "name": "tokenId",
          "type": "uint256"
        }
      ],
      "name": "checkIfStaked",
      "outputs": [
        {
          "internalType": "bool",
          "name": "",
          "type": "bool"
        }
      ],
      "stateMutability": "view",
      "type": "function"
    },
    {
      "inputs": [],
      "name": "decimals",
      "outputs": [
        {
          "internalType": "uint8",
          "name": "",
          "type": "uint8"
        }
      ],
      "stateMutability": "view",
      "type": "function"
    },
    {
      "inputs": [
        {
          "internalType": "address",
          "name": "spender",
          "type": "address"
        },
        {
          "internalType": "uint256",
          "name": "subtractedValue",
          "type": "uint256"
        }
      ],
      "name": "decreaseAllowance",
      "outputs": [
        {
          "internalType": "bool",
          "name": "",
          "type": "bool"
        }
      ],
      "stateMutability": "nonpayable",
      "type": "function"
    },
    {
      "inputs": [
        {
          "internalType": "address",
          "name": "user",
          "type": "address"
        }
      ],
      "name": "getIdStakedByUser",
      "outputs": [
        {
          "internalType": "uint256",
          "name": "",
          "type": "uint256"
        }
      ],
      "stateMutability": "view",
      "type": "function"
    },
    {
      "inputs": [
        {
          "internalType": "address",
          "name": "",
          "type": "address"
        }
      ],
      "name": "idStakedByUser",
      "outputs": [
        {
          "internalType": "uint256",
          "name": "",
          "type": "uint256"
        }
      ],
      "stateMutability": "view",
      "type": "function"
    },
    {
      "inputs": [
        {
          "internalType": "address",
          "name": "spender",
          "type": "address"
        },
        {
          "internalType": "uint256",
          "name": "addedValue",
          "type": "uint256"
        }
      ],
      "name": "increaseAllowance",
      "outputs": [
        {
          "internalType": "bool",
          "name": "",
          "type": "bool"
        }
      ],
      "stateMutability": "nonpayable",
      "type": "function"
    },
    {
      "inputs": [
        {
          "internalType": "uint256",
          "name": "",
          "type": "uint256"
        }
      ],
      "name": "isStaked",
      "outputs": [
        {
          "internalType": "bool",
          "name": "",
          "type": "bool"
        }
      ],
      "stateMutability": "view",
      "type": "function"
    },
    {
      "inputs": [],
      "name": "name",
      "outputs": [
        {
          "internalType": "string",
          "name": "",
          "type": "string"
        }
      ],
      "stateMutability": "view",
      "type": "function"
    },
    {
      "inputs": [],
      "name": "nft",
      "outputs": [
        {
          "internalType": "contract IERC721",
          "name": "",
          "type": "address"
        }
      ],
      "stateMutability": "view",
      "type": "function"
    },
    {
      "inputs": [
        {
          "internalType": "address",
          "name": "",
          "type": "address"
        },
        {
          "internalType": "address",
          "name": "",
          "type": "address"
        },
        {
          "internalType": "uint256",
          "name": "",
          "type": "uint256"
        },
        {
          "internalType": "bytes",
          "name": "",
          "type": "bytes"
        }
      ],
      "name": "onERC721Received",
      "outputs": [
        {
          "internalType": "bytes4",
          "name": "",
          "type": "bytes4"
        }
      ],
      "stateMutability": "nonpayable",
      "type": "function"
    },
    {
      "inputs": [],
      "name": "owner",
      "outputs": [
        {
          "internalType": "address",
          "name": "",
          "type": "address"
        }
      ],
      "stateMutability": "view",
      "type": "function"
    },
    {
      "inputs": [],
      "name": "renounceOwnership",
      "outputs": [],
      "stateMutability": "nonpayable",
      "type": "function"
    },
    {
      "inputs": [
        {
          "internalType": "uint256",
          "name": "tokenId",
          "type": "uint256"
        }
      ],
      "name": "stake",
      "outputs": [],
      "stateMutability": "nonpayable",
      "type": "function"
    },
    {
      "inputs": [],
      "name": "symbol",
      "outputs": [
        {
          "internalType": "string",
          "name": "",
          "type": "string"
        }
      ],
      "stateMutability": "view",
      "type": "function"
    },
    {
      "inputs": [
        {
          "internalType": "uint256",
          "name": "",
          "type": "uint256"
        }
      ],
      "name": "tokenOwnerOf",
      "outputs": [
        {
          "internalType": "address",
          "name": "",
          "type": "address"
        }
      ],
      "stateMutability": "view",
      "type": "function"
    },
    {
      "inputs": [
        {
          "internalType": "uint256",
          "name": "",
          "type": "uint256"
        }
      ],
      "name": "tokenStakedAt",
      "outputs": [
        {
          "internalType": "uint256",
          "name": "",
          "type": "uint256"
        }
      ],
      "stateMutability": "view",
      "type": "function"
    },
    {
      "inputs": [],
      "name": "totalSupply",
      "outputs": [
        {
          "internalType": "uint256",
          "name": "",
          "type": "uint256"
        }
      ],
      "stateMutability": "view",
      "type": "function"
    },
    {
      "inputs": [
        {
          "internalType": "address",
          "name": "to",
          "type": "address"
        },
        {
          "internalType": "uint256",
          "name": "amount",
          "type": "uint256"
        }
      ],
      "name": "transfer",
      "outputs": [
        {
          "internalType": "bool",
          "name": "",
          "type": "bool"
        }
      ],
      "stateMutability": "nonpayable",
      "type": "function"
    },
    {
      "inputs": [
        {
          "internalType": "address",
          "name": "from",
          "type": "address"
        },
        {
          "internalType": "address",
          "name": "to",
          "type": "address"
        },
        {
          "internalType": "uint256",
          "name": "amount",
          "type": "uint256"
        }
      ],
      "name": "transferFrom",
      "outputs": [
        {
          "internalType": "bool",
          "name": "",
          "type": "bool"
        }
      ],
      "stateMutability": "nonpayable",
      "type": "function"
    },
    {
      "inputs": [
        {
          "internalType": "address",
          "name": "newOwner",
          "type": "address"
        }
      ],
      "name": "transferOwnership",
      "outputs": [],
      "stateMutability": "nonpayable",
      "type": "function"
    },
    {
      "inputs": [
        {
          "internalType": "uint256",
          "name": "tokenId",
          "type": "uint256"
        }
      ],
      "name": "unstake",
      "outputs": [],
      "stateMutability": "nonpayable",
      "type": "function"
    }
  ],
  "bytecode": {
    "object": "0x608060405262015180620000166012600a6200026c565b6200002390603262000284565b6200002f91906200029e565b600a553480156200003f57600080fd5b506040516200147a3803806200147a8339810160408190526200006291620002c1565b6040518060400160405280600781526020016626bcaa37b5b2b760c91b815250604051806040016040528060038152602001624d544b60e81b8152508160039081620000af919062000391565b506004620000be828262000391565b505050620000db620000d56200010160201b60201c565b62000105565b600680546001600160a01b0319166001600160a01b03929092169190911790556200045d565b3390565b600580546001600160a01b038381166001600160a01b0319831681179093556040519116919082907f8be0079c531659141344cd1fd0a4f28419497f9722a3daafe3b4186f6b6457e090600090a35050565b634e487b7160e01b600052601160045260246000fd5b600181815b80851115620001ae57816000190482111562000192576200019262000157565b80851615620001a057918102915b93841c939080029062000172565b509250929050565b600082620001c75750600162000266565b81620001d65750600062000266565b8160018114620001ef5760028114620001fa576200021a565b600191505062000266565b60ff8411156200020e576200020e62000157565b50506001821b62000266565b5060208310610133831016604e8410600b84101617156200023f575081810a62000266565b6200024b83836200016d565b806000190482111562000262576200026262000157565b0290505b92915050565b60006200027d60ff841683620001b6565b9392505050565b808202811582820484141762000266576200026662000157565b600082620002bc57634e487b7160e01b600052601260045260246000fd5b500490565b600060208284031215620002d457600080fd5b81516001600160a01b03811681146200027d57600080fd5b634e487b7160e01b600052604160045260246000fd5b600181811c908216806200031757607f821691505b6020821081036200033857634e487b7160e01b600052602260045260246000fd5b50919050565b601f8211156200038c57600081815260208120601f850160051c81016020861015620003675750805b601f850160051c820191505b81811015620003885782815560010162000373565b5050505b505050565b81516001600160401b03811115620003ad57620003ad620002ec565b620003c581620003be845462000302565b846200033e565b602080601f831160018114620003fd5760008415620003e45750858301515b600019600386901b1c1916600185901b17855562000388565b600085815260208120601f198616915b828110156200042e578886015182559484019460019091019084016200040d565b50858210156200044d5787850151600019600388901b60f8161c191681555b5050505050600190811b01905550565b61100d806200046d6000396000f3fe608060405234801561001057600080fd5b506004361061018e5760003560e01c806370a08231116100de578063a457c2d711610097578063baa51f8611610071578063baa51f86146103c6578063da11a072146103e9578063dd62ed3e14610409578063f2fde38b1461041c57600080fd5b8063a457c2d71461038d578063a694fc3a146103a0578063a9059cbb146103b357600080fd5b806370a0823114610307578063715018a61461033057806371aa60fd1461033857806389885a591461034b5780638da5cb5b1461037457806395d89b411461038557600080fd5b806324bf238c1161014b57806336908c531161012557806336908c531461027d57806339509351146102a657806347ccca02146102b95780635dbc7f89146102e457600080fd5b806324bf238c146102395780632e17de7814610259578063313ce5671461026e57600080fd5b806301b8199a1461019357806306fdde03146101af578063095ea7b3146101c4578063150b7a02146101e757806318160ddd1461021e57806323b872dd14610226575b600080fd5b61019c600a5481565b6040519081526020015b60405180910390f35b6101b761042f565b6040516101a69190610d21565b6101d76101d2366004610d8b565b6104c1565b60405190151581526020016101a6565b6102056101f5366004610dcb565b630a85bd0160e11b949350505050565b6040516001600160e01b031990911681526020016101a6565b60025461019c565b6101d7610234366004610ea7565b6104db565b61019c610247366004610ee3565b60096020526000908152604090205481565b61026c610267366004610ee3565b6104ff565b005b604051601281526020016101a6565b61019c61028b366004610efc565b6001600160a01b031660009081526008602052604090205490565b6101d76102b4366004610d8b565b610614565b6006546102cc906001600160a01b031681565b6040516001600160a01b0390911681526020016101a6565b6101d76102f2366004610ee3565b6000908152600b602052604090205460ff1690565b61019c610315366004610efc565b6001600160a01b031660009081526020819052604090205490565b61026c610636565b61019c610346366004610ee3565b61064a565b6102cc610359366004610ee3565b6007602052600090815260409020546001600160a01b031681565b6005546001600160a01b03166102cc565b6101b761067c565b6101d761039b366004610d8b565b61068b565b61026c6103ae366004610ee3565b610706565b6101d76103c1366004610d8b565b6107c2565b6101d76103d4366004610ee3565b600b6020526000908152604090205460ff1681565b61019c6103f7366004610efc565b60086020526000908152604090205481565b61019c610417366004610f17565b6107d0565b61026c61042a366004610efc565b6107fb565b60606003805461043e90610f4a565b80601f016020809104026020016040519081016040528092919081815260200182805461046a90610f4a565b80156104b75780601f1061048c576101008083540402835291602001916104b7565b820191906000526020600020905b81548152906001019060200180831161049a57829003601f168201915b5050505050905090565b6000336104cf818585610874565b60019150505b92915050565b6000336104e9858285610998565b6104f4858585610a12565b506001949350505050565b6000818152600760205260409020546001600160a01b0316331461055e5760405162461bcd60e51b8152602060048201526011602482015270596f752063616e277420756e7374616b6560781b60448201526064015b60405180910390fd5b6105703361056b8361064a565b610bb6565b6006546040516323b872dd60e01b8152306004820152336024820152604481018390526001600160a01b03909116906323b872dd90606401600060405180830381600087803b1580156105c257600080fd5b505af11580156105d6573d6000803e3d6000fd5b50505060009182525060076020908152604080832080546001600160a01b031916905560098252808320839055600b9091529020805460ff19169055565b6000336104cf81858561062783836107d0565b6106319190610f9a565b610874565b61063e610c75565b6106486000610ccf565b565b60008181526009602052604081205481906106659042610fad565b9050600a54816106759190610fc0565b9392505050565b60606004805461043e90610f4a565b6000338161069982866107d0565b9050838110156106f95760405162461bcd60e51b815260206004820152602560248201527f45524332303a2064656372656173656420616c6c6f77616e63652062656c6f77604482015264207a65726f60d81b6064820152608401610555565b6104f48286868403610874565b600654604051632142170760e11b8152336004820152306024820152604481018390526001600160a01b03909116906342842e0e90606401600060405180830381600087803b15801561075857600080fd5b505af115801561076c573d6000803e3d6000fd5b505050600082815260076020908152604080832080546001600160a01b0319163390811790915560098352818420429055835260088252808320859055938252600b905291909120805460ff1916600117905550565b6000336104cf818585610a12565b6001600160a01b03918216600090815260016020908152604080832093909416825291909152205490565b610803610c75565b6001600160a01b0381166108685760405162461bcd60e51b815260206004820152602660248201527f4f776e61626c653a206e6577206f776e657220697320746865207a65726f206160448201526564647265737360d01b6064820152608401610555565b61087181610ccf565b50565b6001600160a01b0383166108d65760405162461bcd60e51b8152602060048201526024808201527f45524332303a20617070726f76652066726f6d20746865207a65726f206164646044820152637265737360e01b6064820152608401610555565b6001600160a01b0382166109375760405162461bcd60e51b815260206004820152602260248201527f45524332303a20617070726f766520746f20746865207a65726f206164647265604482015261737360f01b6064820152608401610555565b6001600160a01b0383811660008181526001602090815260408083209487168084529482529182902085905590518481527f8c5be1e5ebec7d5bd14f71427d1e84f3dd0314c0f7b2291e5b200ac8c7c3b925910160405180910390a3505050565b60006109a484846107d0565b90506000198114610a0c57818110156109ff5760405162461bcd60e51b815260206004820152601d60248201527f45524332303a20696e73756666696369656e7420616c6c6f77616e63650000006044820152606401610555565b610a0c8484848403610874565b50505050565b6001600160a01b038316610a765760405162461bcd60e51b815260206004820152602560248201527f45524332303a207472616e736665722066726f6d20746865207a65726f206164604482015264647265737360d81b6064820152608401610555565b6001600160a01b038216610ad85760405162461bcd60e51b815260206004820152602360248201527f45524332303a207472616e7366657220746f20746865207a65726f206164647260448201526265737360e81b6064820152608401610555565b6001600160a01b03831660009081526020819052604090205481811015610b505760405162461bcd60e51b815260206004820152602660248201527f45524332303a207472616e7366657220616d6f756e7420657863656564732062604482015265616c616e636560d01b6064820152608401610555565b6001600160a01b03848116600081815260208181526040808320878703905593871680835291849020805487019055925185815290927fddf252ad1be2c89b69c2b068fc378daa952ba7f163c4a11628f55a4df523b3ef910160405180910390a3610a0c565b6001600160a01b038216610c0c5760405162461bcd60e51b815260206004820152601f60248201527f45524332303a206d696e7420746f20746865207a65726f2061646472657373006044820152606401610555565b8060026000828254610c1e9190610f9a565b90915550506001600160a01b038216600081815260208181526040808320805486019055518481527fddf252ad1be2c89b69c2b068fc378daa952ba7f163c4a11628f55a4df523b3ef910160405180910390a35050565b6005546001600160a01b031633146106485760405162461bcd60e51b815260206004820181905260248201527f4f776e61626c653a2063616c6c6572206973206e6f7420746865206f776e65726044820152606401610555565b600580546001600160a01b038381166001600160a01b0319831681179093556040519116919082907f8be0079c531659141344cd1fd0a4f28419497f9722a3daafe3b4186f6b6457e090600090a35050565b600060208083528351808285015260005b81811015610d4e57858101830151858201604001528201610d32565b506000604082860101526040601f19601f8301168501019250505092915050565b80356001600160a01b0381168114610d8657600080fd5b919050565b60008060408385031215610d9e57600080fd5b610da783610d6f565b946020939093013593505050565b634e487b7160e01b600052604160045260246000fd5b60008060008060808587031215610de157600080fd5b610dea85610d6f565b9350610df860208601610d6f565b925060408501359150606085013567ffffffffffffffff80821115610e1c57600080fd5b818701915087601f830112610e3057600080fd5b813581811115610e4257610e42610db5565b604051601f8201601f19908116603f01168101908382118183101715610e6a57610e6a610db5565b816040528281528a6020848701011115610e8357600080fd5b82602086016020830137600060208483010152809550505050505092959194509250565b600080600060608486031215610ebc57600080fd5b610ec584610d6f565b9250610ed360208501610d6f565b9150604084013590509250925092565b600060208284031215610ef557600080fd5b5035919050565b600060208284031215610f0e57600080fd5b61067582610d6f565b60008060408385031215610f2a57600080fd5b610f3383610d6f565b9150610f4160208401610d6f565b90509250929050565b600181811c90821680610f5e57607f821691505b602082108103610f7e57634e487b7160e01b600052602260045260246000fd5b50919050565b634e487b7160e01b600052601160045260246000fd5b808201808211156104d5576104d5610f84565b818103818111156104d5576104d5610f84565b80820281158282048414176104d5576104d5610f8456fea2646970667358221220b0d3657302ef4ac0b97068b7abcd1e77f99d63b26fba46b715f2c62bb2748e0b64736f6c63430008120033",
    "linkReferences": {}
  },
  "methodIdentifiers": {
    "EMISSION_RATE()": "01b8199a",
    "allowance(address,address)": "dd62ed3e",
    "approve(address,uint256)": "095ea7b3",
    "balanceOf(address)": "70a08231",
    "calculateTokens(uint256)": "71aa60fd",
    "checkIfStaked(uint256)": "5dbc7f89",
    "decimals()": "313ce567",
    "decreaseAllowance(address,uint256)": "a457c2d7",
    "getIdStakedByUser(address)": "36908c53",
    "idStakedByUser(address)": "da11a072",
    "increaseAllowance(address,uint256)": "39509351",
    "isStaked(uint256)": "baa51f86",
    "name()": "06fdde03",
    "nft()": "47ccca02",
    "onERC721Received(address,address,uint256,bytes)": "150b7a02",
    "owner()": "8da5cb5b",
    "renounceOwnership()": "715018a6",
    "stake(uint256)": "a694fc3a",
    "symbol()": "95d89b41",
    "tokenOwnerOf(uint256)": "89885a59",
    "tokenStakedAt(uint256)": "24bf238c",
    "totalSupply()": "18160ddd",
    "transfer(address,uint256)": "a9059cbb",
    "transferFrom(address,address,uint256)": "23b872dd",
    "transferOwnership(address)": "f2fde38b",
    "unstake(uint256)": "2e17de78"
  },
  "id": 37
}